:020000040800F2
:10000000980B00209D020008B9190008C5180008C7
:10001000B51900088D0C0008C91C0008000000007C
:10002000000000000000000000000000C9190008E6
:10003000910C000800000000C7190008CB19000847
:10004000B7020008B7020008B7020008B7020008AC
:10005000B7020008B7020008B7020008B70200089C
:10006000B7020008B7020008B7020008B70200088C
:10007000B7020008B7020008B7020008B70200087C
:10008000B7020008B7020008B7020008B70200086C
:10009000B7020008B7020008B7020008B70200085C
:1000A000B7020008B7020008B7020008B70200084C
:1000B000B7020008B7020008B7020008B70200083C
:1000C000B7020008B7020008B7020008B70200082C
:1000D000B7020008B7020008B7020008B70200081C
:1000E000B7020008B7020008B7020008B70200080C
:1000F000B7020008B7020008B7020008B7020008FC
:10010000B7020008B7020008B7020008B7020008EB
:10011000B7020008B7020008B7020008B7020008DB
:10012000B7020008B7020008B7020008B7020008CB
:10013000B7020008B7020008B7020008B7020008BB
:10014000B7020008B7020008B7020008BD1900088E
:10015000B7020008B7020008B7020008B70200089B
:10016000B7020008B7020008B7020008B70200088B
:10017000B7020008B7020008B7020008000000003C
:10018000B7020008B7020008B7020008B70200086B
:10019000B7020008B7020008B7020008B70200085B
:1001A000B7020008B7020008B702000800F002F822
:1001B00000F064F80AA090E8000C82448344AAF19D
:1001C0000107DA4501D100F059F8AFF2090EBAE89B
:1001D0000F0013F0010F18BFFB1A43F0010318477B
:1001E000D0620000F0620000103A24BF78C878C1E5
:1001F000FAD8520724BF30C830C144BF04680C602D
:10020000704700000023002400250026103A28BF74
:1002100078C1FBD8520728BF30C148BF0B60704778
:10022000692900F04B81642900F04881752900F0AC
:1002300045816F2900F0DC81782900F00182036894
:10024000DB0928BF41F08001632900F00A8473298B
:1002500000F00F84E32900F02D84002070471FB5C3
:1002600005F072FE00F096FB04000020002105F06E
:1002700055FE401C60601FBD10B510BD00F0D8FCDD
:100280001146FFF7ECFF03F031FE00F0F6FC03B47B
:10029000FFF7F2FF03BC01F045FF0000094880476B
:1002A00009480047FEE7FEE7FEE7FEE7FEE7FEE758
:1002B000FEE7FEE7FEE7FEE704480549054A064B70
:1002C00070470000891A0008AD0100089805002059
:1002D000980B002098070020980700207047000026
:1002E00010B500F057FB001D10BD00BF315C0000D1
:1002F00053EA020C00F069802DE9F04B4FF0000644
:10030000002B1FBFB3FA83F503FA05F424FA05F6B0
:100310005E4012BF1643B2FA82F502FA05F4C5F147
:1003200020051EBF22FA05FC44EA0C04203556EADB
:10033000044C4FEA144418BF641C4FF000084FF0FF
:100340000009904271EB030C39D3002919BFB1FAAF
:1003500081F701FA07F6B0FA80F700FA07F6C7F15D
:1003600020071EBF20FA07FC46EA0C062037B6FB22
:10037000F4FCA7EB0507103F07F01F0BCBF120069D
:100380000CFA0BFB2CFA06F644BFB3460026202FCE
:10039000A4BF5E464FF0000B5BEA060C08BF4FF0AF
:1003A000010B19EB0B09ABFB027C48EB0608C01BE9
:1003B00006FB02CC0BFB03CC71EB0C01C1E70B4637
:1003C000024641464846BDE8F08B13B54FF00000A9
:1003D0004FF00001AFF30080BDE81C407047000003
:1003E0000FB4044910B503AA029800F047FB10BCF3
:1003F0005DF814FB0000002070B5044685690068B4
:10040000C10601D5302600E02026C00707D070BD08
:10041000D4E9012130469047206A401C20626D1EBD
:10042000F6D570BD70B5044685690078C00707D160
:1004300070BDD4E9012120209047206A401C206231
:100440006D1EF6D570BD09684A0501D540B27047EA
:10045000C905FCD500B2704709684A0501D5C0B28C
:100460007047C905FCD580B2704770B50C4605468B
:10047000012A05D02878800600D5EA69002302E029
:10048000012305E05B1C934202D2E05C0028F9D115
:10049000A869E618C01AA861286A18442862284684
:1004A000FFF7AAFF04E0D5E9012114F8010B9047FA
:1004B000B442F8D32846FFF7B5FF70BD2DE9F041EF
:1004C0000646002410687529314616A510D0FFF79E
:1004D000BAFF002802DA404213A507E031688A0714
:1004E00001D512A502E0490704D511A5012401E0B8
:1004F000FFF7B2FF00210A2206F1240709E0B0FB52
:10050000F2FCB0FBF2F302FB1C00303078541846CA
:10051000491C0028F3D123462A463046BDE8F04165
:1005200000F03CBA000000002D0000002B0000008D
:10053000200000002DE9FF5F15468A460446DFF8DB
:10054000AC80F8440027D8E900103E46CDE9001001
:1005500010E03AF816106A4602A800F0B7FA411CFB
:1005600007D02178890603D5E269391891420DD860
:100570000744761C2078800602D5E069B84205DD84
:10058000AE42E6DB3AF816000028E2D1A069C01BB3
:10059000A0612046FFF730FFD8E90010CDE9001038
:1005A000002017E03AF818106A4602A800F08EFA08
:1005B000B0F1FF3F81460BD000250DF1080B05E09F
:1005C000D4E901211BF8050090476D1C4D45F7D378
:1005D00008F10100B0428046E4DB206A3844206222
:1005E0002046FFF71FFFBDE8FF9F0000BE5D000033
:1005F00070B5044621461068FFF72EFF002104F174
:10060000240505E000F007023032C0086A54491C96
:100610000028F7D12068002307A2050707D5800628
:1006200000D421B1E069012304A2401EE06120460C
:10063000BDE8704000F0B2B90000000030000000DA
:1006400070B504460D4621461068FFF705FF218866
:10065000090502D50F4A7A4402E00E4A7A440E3266
:10066000002104F1240305E000F00F060009965D67
:100670005E54491C0028F7D120780023000704D5D8
:10068000702D02D009B1022311322046BDE870401E
:1006900000F084B9B25C00002DE9F05F89460446A1
:1006A0004FF0000ADFF874B1FB44C0F820A02046E8
:1006B000E1688847002874D0252806D0D4E90121B4
:1006C0009047206A401C2062F1E700265F462046E2
:1006D000E16888472028054607DB312D05D27819C7
:1006E00010F8200C08B10643F1E7B00701D526F059
:1006F0000406C4F81CA00027C4F818A02A2D09D0AD
:10070000284601F0BAFC38B304EB8708303DC8F83E
:10071000185019E059F8041B204604EB8702916138
:10072000E1688847012F054618D1E069002820DAE2
:1007300026F020061DE0D8F8180000EB800005EB3D
:1007400040003038C8F818002046E1688847054660
:1007500001F093FC0028EED1012F0AD02E2D08D1F4
:100760002046E16888477F1C0546022F46F0200698
:10077000C4DBA069002803DA404246F00106A0610C
:10078000F00701D026F010066C2D0BD0682D09D093
:100790004C2D39D06A2D35D0742D35D07A2D33D0EB
:1007A00016E038E0E1682F4620468847B842054603
:1007B00009D16C2F26D04FF48060E16806432046B3
:1007C0008847054604E06C2F1AD04FF4807006432A
:1007D0000DB3A5F14100192802D8203546F4006672
:1007E0004A462946204626604E46FFF719FD80B14D
:1007F00001280BD0F61D26F0070000F1080956E786
:100800004020E4E78020D8E70020D6E706F104097D
:100810004DE7284652E7206ABDE8F09F885C00005B
:1008200010B5431C02E010F8011B71B18107FAD129
:100830004FF0013202C88C1A8C4314EAC211F9D06D
:10084000C01A0A0603D0C01E10BDC01A10BD0A048B
:1008500001D0801E10BD0902FCD0401E10BD032A2D
:1008600040F2308010F0030C00F0158011F8013BCD
:10087000BCF1020F624498BF11F801CB00F8013BB4
:1008800038BF11F8013BA2F1040298BF00F801CB78
:1008900038BF00F8013B11F0030300F03781083A3C
:1008A000C0F0088051F8043B083A51F804CBA0E8A6
:1008B0000810F5E7121D5CBF51F8043B40F8043BFB
:1008C000AFF30080D20724BF11F8013B11F801CB30
:1008D00048BF11F8012B24BF00F8013B00F801CB01
:1008E00048BF00F8012B704702F0FF0343EA0322E0
:1008F00042EA024200F002B84FF000020429C0F0C0
:10090000128010F0030C00F01B80CCF1040CBCF141
:10091000020F18BF00F8012BA8BF20F8022BA1EB93
:100920000C0100F00DB85FEAC17C24BF00F8012B78
:1009300000F8012B48BF00F8012B70474FF0000270
:1009400000B5134694469646203922BFA0E80C50C5
:10095000A0E80C50B1F12001BFF4F7AF090728BFA0
:10096000A0E80C5048BF0CC05DF804EB890028BF1C
:1009700040F8042B08BF704748BF20F8022B11F045
:10098000804F18BF00F8012B7047704770477047C1
:100990007047000000487047540500202DE9F047DB
:1009A0000D4699469246044600F1240801688806DF
:1009B00004D5E06921F01001216000E00120A84287
:1009C00001DD471B00E00027A1697A1902EB09004D
:1009D000081AA0612078C00602D42046FFF70CFD5B
:1009E000002608E0D4E901211AF806009047206AA1
:1009F000401C761C20624E45F4DB2078C0060AD5E8
:100A00002046FFF7F9FC06E0D4E9012130209047A9
:100A1000206A401C2062381EA7F10107F4DC07E0C1
:100A2000D4E9012118F805009047206A401C206293
:100A3000281EA5F10105F3DC2046FFF7F3FC207822
:100A4000000602D50220BDE8F0870120FBE710B5C3
:100A5000436913B1AFF3008001E0FFF706FD012009
:100A600010BD127800F124010A7000224A700122A0
:100A7000EDE711684FF0FF32E9E70000074B70B572
:100A80000D467B4400F07DF80446284600F08CF8C3
:100A900010B14FF0FF3070BD204670BD93300000A4
:100AA00010B5436913B1AFF3008001E0FFF742FDD9
:100AB000012010BD128800F1240182840022C2842A
:100AC0000122EDE711684FF0FF32E9E770B51646F5
:100AD0000C460546FFF704FC036893F80101012862
:100AE00006D0FF2C0FD8185D68B101202C7070BDA6
:100AF000D3F807013246214603F207130344284680
:100B0000BDE8704018474FF0FF3070BD10B5203A77
:100B1000C0F00B80B1E81850203AA0E81850B1E8B6
:100B20001850A0E81850BFF4F5AF5FEA027C24BF6C
:100B3000B1E81850A0E8185044BF18C918C0BDE863
:100B400010405FEA827C24BF51F8043B40F8043B2C
:100B500008BF7047D20728BF31F8023B48BF11F8E1
:100B6000012B28BF20F8023B48BF00F8012B70473B
:100B7000004870473405002001694A1C026108786A
:100B8000704700B58FB0CDE90131002105910549CD
:100B90007944CDE9031011466846FFF77DFD0FB09B
:100BA00000BD0000E5FFFFFF007B00F08000704704
:100BB0004FF0013C50F8042B51F8043B9A4221D1EC
:100BC000A2EB0C03934313EACC1317D150F8042B78
:100BD00051F8043B9A4215D1A2EB0C03934313EA5C
:100BE000CC130BD150F8042B51F8043B9A4209D195
:100BF000A2EB0C03934313EACC13DBD04FF00000BD
:100C0000704700BFD01A01BAB1FA81F101F01801A2
:100C100022FA01F0CB40C1F12001DBB2C0B2C01A10
:100C20002CFA01F3D11A914311EAC311E6D17047AE
:100C30007546FFF79DFFAE4605006946534620F016
:100C40000700854618B020B5FFF736FBBDE8204009
:100C50004FF000064FF000074FF000084FF0000B78
:100C600021F00701AC46ACE8C009ACE8C009ACE82B
:100C7000C009ACE8C0098D46704710B50446AFF313
:100C800000802046BDE81040FFF701BB00BFFEE733
:100C9000704772B600BFFEE7F8B502460B46002566
:100CA000002400200021E0E0012606FA01F51E687C
:100CB00006EA0504AC4274D11E7906F00306012E43
:100CC00004D01E7906F00306022E13D190684F005F
:100CD0000326BE40B0434F00DE68BE403043906004
:100CE000506801268E40B0431E79C6F300168E4030
:100CF000304350601E7906F00306032E09D0D068F9
:100D00004F000326BE40B0434F009E68BE403043B4
:100D1000D0601E7906F00306022E13D1CF0802F12F
:100D2000200656F827004E07F70E0F26BE40B043A8
:100D30004F07FF0E1E69BE403043CF0802F1200668
:100D400046F8270010684F000326BE40B0431E79C6
:100D500006F003064F00BE40304310605E6806F4A4
:100D60004036002E1DD000BF00260096414E36684A
:100D700046F480463F4F3E603E46366806F4804665
:100D8000009600BF00BF3C4E8F0856F827008E0724
:100D9000370F0F26BE40B043384EB24202D1002674
:100DA0002EE061E0364EB24201D1012628E0354EF8
:100DB000B24201D1022623E0334EB24201D10326D2
:100DC0001EE0324EB24201D1042619E0304EB2424A
:100DD00001D1052614E02F4EB24201D106260FE0C4
:100DE0002D4EB24201D107260AE02C4EB24201D16B
:100DF000082605E02A4EB24201D1092600E00A2663
:100E00008F073F0FBE4030431B4E8F0846F8270028
:100E1000244E3068A0435E6806F4801606B1204375
:100E2000204E3060361D3068A0435E6806F4001620
:100E300006B120431B4E361D30601A4E361F3068F7
:100E4000A0435E6806F4003606B12043154E361FF7
:100E50003060361F3068A0435E6806F4803606B105
:100E60002043104E083E3060491C1029FFF41CAF8F
:100E7000F8BD00004438024008380140000002403C
:100E80000004024000080240000C02400010024032
:100E90000014024000180240001C024000200240E2
:100EA00000240240083C01400AB1816101E00B04CA
:100EB000836170470148006870470000040000200B
:100EC00003480068034909780844014908607047ED
:100ED000040000200C00002010B50D48006840F40C
:100EE00000700B4908600846006840F480600860A4
:100EF0000846006840F480700860032000F0A6F8FF
:100F00000F2000F007F800F02BF8002010BD0000C3
:100F1000003C024070B504460E4800784FF47A71E8
:100F2000B1FBF0F00C490968B1FBF0F5284600F080
:100F30002FFC08B1012070BD102C07D200222146E1
:100F4000501E00F045F80548046001E00120F2E77A
:100F50000020F0E70C000020100000200800002016
:100F600008B500BF002000900E48006840F48040A3
:100F70000C4908600846006800F48040009000BFFB
:100F800000BF00BF00200090081F006840F08050A4
:100F9000091F08600846006800F08050009000BFFC
:100FA00000BF08BD443802400146084600280DDB5A
:100FB00000BF00BF00F01F0301229A4043099B00BD
:100FC00003F1E023C3F8002100BF00BF00BF70475A
:100FD0002DE9F05F80460D461646002700F076FEAC
:100FE000074639462A46334601F00700C0F1070A92
:100FF000BAF1040F02D94FF0040A01E0C0F1070A68
:10100000D14600F1040ABAF1070F02D24FF0000AEC
:1010100001E0A0F1030AD4464FF0010A0AFA09FAE6
:10102000AAF1010A0AEA020A0AFA0CFA4FF0010BC5
:101030000BFA0CFBABF1010B0BEA030B4AEA0B04B6
:101040002146404600F04AFEBDE8F09F00BF00F098
:101050000702064B19684FF6FF031940044B0B4378
:1010600043EA0221014B196000BF70470CED00E01C
:101070000000FA0570B504460D460CB9012070BD9C
:101080005848006800F00F00A84209D255490D7079
:101090000846006800F00F00A84201D00120EEE7EA
:1010A000207800F0020002281DD1207800F0040012
:1010B000042805D14C48006840F4E0504A490860D3
:1010C000207800F00800082805D14748006840F45F
:1010D0006040454908604448006820F0F000A1687D
:1010E000084341490860207800F00100A8B3606817
:1010F000012807D13C4808380068C0F34040B8B91F
:101100000120BCE76068022802D06068032807D18C
:10111000354808380068C0F3406048B90120AEE7A0
:10112000314808380068C0F3400008B90120A6E73C
:101130002D48006820F00300616808432A490860D0
:10114000FFF7B8FE064609E0FFF7B4FE801B41F248
:101150008831884202D9032091E707E022480068DD
:1011600000F00C006168B0EB810FEDD11D48006804
:1011700000F00F00A84209D91A490D70084600680E
:1011800000F00F00A84201D0012078E7207800F09D
:101190000400042807D11448006820F4E050E168F6
:1011A000084311490860207800F00800082808D199
:1011B0000D48006820F46040216940EAC1000A49F6
:1011C000086000F03FF808490968C1F30311074AB5
:1011D000515CC8400649086006480068FFF79AFE5F
:1011E00000204CE7003C024008380240525F0008F3
:1011F000100000200800002001480068704700002F
:101200001000002000B5FFF7F7FF04490968C1F39B
:101210008221034A515CC84000BD000008380240EA
:10122000625F000800B5FFF7E7FF04490968C1F3F2
:101230004231034A515CC84000BD000008380240FA
:10124000625F00082DE9F047002400250026A14632
:101250002548006800F00C0020B1042805D00828BB
:101260003AD105E0DFF8849039E0DFF8849036E089
:101270001D48001F006800F03F041B48001F006865
:1012800000F4800078B11A481749091F0968C1F3B2
:101290008811A0FB01700146224600233846FFF763
:1012A00027F805460EE011480F49091F0968C1F3E8
:1012B0008811A0FB01700146224600233846FFF743
:1012C00017F805460848001F0068C0F30140401C9D
:1012D0004600B5FBF6F902E0DFF8109000BF00BF52
:1012E0004846BDE8F0870000083802400024F400BA
:1012F00040787D01F8B504460CB90120F8BD20788E
:1013000000F00100002874D0F948006800F00C00DB
:1013100004280DD0F648006800F00C00082813D10E
:10132000F348001F006800F48000B0F5800F0BD177
:10133000EF4808380068C0F34040002859D0606882
:10134000002856D10120D9E700BF6068B0F5803F82
:1013500008D1E7480838006840F48030E44908398B
:1013600008601EE06068B0F5A02F0DD1E048083895
:10137000006840F48020DE490839086008460068AB
:1013800040F4803008600CE0D9480838006820F448
:101390008030D749083908600846006820F480206A
:1013A000086000BF606890B1FFF784FD054606E065
:1013B000FFF780FD401B642801D903209EE7CC483D
:1013C00008380068C0F340400028F1D011E0FFF772
:1013D00071FD054606E0FFF76DFD401B642801D94D
:1013E00003208BE7C24808380068C0F3404000285B
:1013F000F1D1207800F0020002285FD1BC480068DB
:1014000000F00C0058B1BA48006800F00C00082841
:101410001CD1B748001F006800F48000B0B9B44880
:1014200008380068C0F3400020B1E068012801D00E
:10143000012063E7AE480838006820F0F800216911
:1014400040EAC100AA490839086037E0E06800B303
:101450000120A8490860FFF72DFD054606E0FFF7CB
:1014600029FD401B022801D9032047E7A04808387E
:101470000068C0F340000028F1D09D48083800689B
:1014800020F0F800216940EAC10099490839086054
:1014900014E0002097490860FFF70CFD054606E0C0
:1014A000FFF708FD401B022801D9032026E79048DA
:1014B00008380068C0F340000028F1D1207800F01F
:1014C000080008282CD16069A8B101208A49086069
:1014D000FFF7F0FC054606E0FFF7ECFC401B022896
:1014E00001D903200AE782486C300068C0F340004D
:1014F0000028F1D014E000207F490860FFF7DAFCF3
:10150000054606E0FFF7D6FC401B022801D9032060
:10151000F4E677486C300068C0F340000028F1D151
:10152000207800F00400042870D10027704838307B
:10153000006800F0805090B900BF002000906C4817
:101540003830006840F080506949383108600846FA
:10155000006800F08050009000BF00BF012767487E
:10156000006800F48070B0B96448006840F480708E
:1015700062490860FFF79EFC054606E0FFF79AFC0B
:10158000401B022801D90320B8E65C48006800F43B
:1015900080700028F2D000BFA068012808D154480C
:1015A0006830006840F001005149683108601DE072
:1015B000A06805280DD14E486830006840F004004E
:1015C0004B49683108600846006840F00100086037
:1015D0000CE047486830006820F001004449683159
:1015E00008600846006820F00400086000BFA0689A
:1015F000A8B1FFF75FFC054609E0FFF75BFC401B65
:1016000041F28831884202D9032077E626E0384843
:1016100068300068C0F340000028EED013E0FFF708
:1016200049FC054608E0FFF745FC401B41F28831C4
:10163000884201D9032061E62D4868300068C0F374
:1016400040000028EFD1012F07D129483830006829
:1016500020F0805026493831086000BFA06900287A
:1016600045D02348006800F00C0008285DD0A06930
:10167000022845D100201F490866FFF71BFC0546DC
:1016800006E0FFF717FC401B022801D9032035E6CE
:10169000174808380068C0F340600028F1D1D4E949
:1016A00007010843616A40EA81110122A06AC2EB86
:1016B000500041EA00412C20005D41EA00600C49E5
:1016C000091F086001200B490866FFF7F3FB054678
:1016D00006E0FFF7EFFB401B022801D903200DE6CF
:1016E000034808380068C0F340600028F1D049E0A2
:1016F0000838024000004742800E47420070004018
:10170000002021490866FFF7D5FB054606E0FFF7F4
:10171000D1FB401B022801D90320EFE51B480068DC
:10172000C0F340600028F2D12CE0A069012800D16C
:10173000E4E51648001D0668A069012820D006F4DB
:101740008001E06981421BD106F03F01206A81429D
:1017500016D147F6C0703040616AB0EB811F0FD1DF
:1017600006F440310122A06AC2EB5000B1EB004FF9
:1017700006D106F070612C20005DB1EB006F01D046
:101780000120BBE50020B9E50000474200380240D7
:1017900070B504462546681EB0F1807F01D3012054
:1017A0000FE0681E4FF0E02148610F214FF0FF303D
:1017B00000F094FA00204FF0E021886107200861D2
:1017C000002070BD10B504460CB9012010BDA06901
:1017D00000B100E000BF94F8410028B9002084F86F
:1017E0004000204600F02AF8242084F841002068B8
:1017F000C06820F400502168C860204600F04EF90F
:101800002068006920F490402168086120684069E0
:1018100020F02A00216848612068C06840F4005028
:101820002168C86000206064202084F8410084F8AA
:1018300042000020606300BFC8E7000010B586B01A
:101840000446142101A8FFF779F81B492068884253
:1018500030D100BF002000901848006840F0100010
:10186000164908600846006800F01000009000BFAC
:1018700000BF00BF0020009010481438006840F0FE
:1018800001000E49143908600846006800F00100A4
:10189000009000BF00BF4FF4C06001900220029092
:1018A00000200390032004900720059001A904481C
:1018B000FFF7F2F906B010BD0010014044380240B5
:1018C0000000024000BFFEE700B587B0142102A867
:1018D000FFF734F800BF002001902648006840F070
:1018E0000400244908600846006800F004000190E4
:1018F00000BF00BF00BF002001900846006840F014
:10190000800008600846006800F08000019000BF79
:1019100000BF00BF002001900846006840F00200B0
:1019200008600846006800F00200019000BF00BF98
:1019300000BF002001900846006840F001000860E8
:101940000846006800F00100019000BF00BF0022BF
:1019500003210948FFF7A8FA032002900120039011
:1019600004900320059002A90348FFF795F907B0FA
:1019700000BD0000303802400004024010B50B48A2
:101980000B4908604FF4E13048600021084881604D
:10199000C16001610C21416100218161C161FFF7DA
:1019A00011FF08B1FFF775F910BD000000100140EC
:1019B0005800002000BFFEE700BFFEE710B5002082
:1019C00001F076FC10BD7047704710B5FFF778FA4C
:1019D00010BD000000B593B0302107A8FEF7AEFFA0
:1019E000142102A8FEF7AAFF00BF0020019024489E
:1019F000006840F08050224908600846006800F006
:101A00008050019000BF00BF00BF002001901D4822
:101A1000006840F440401B4908600846006800F434
:101A20004040019000BF00BF0120079000040890D3
:101A300002200D9041050E9119210F914FF4A871CC
:101A40001091022111910721129107A8FFF752FC72
:101A500008B1FFF71EF90F2002900220039000202A
:101A600004904FF4A05005904FF48050069005214B
:101A700002A8FFF7FFFA08B1FFF70BF913B000BD9A
:101A800040380240007000400348006840F4700095
:101A9000014908607047000088ED00E02DE9F84F2B
:101AA00004462068006920F44050E168084321683A
:101AB00008612169A068084361690843E169084336
:101AC00000902068C06849F20C618843009908437F
:101AD0002168C8602068406920F44070A16908430B
:101AE0002168486176492068884203D0754920689A
:101AF000884203D1FFF796FB814602E0FFF782FBA5
:101B00008146E069B0F5004F6CD102206168A0FB0E
:101B1000015003461920A9FB007001462A463846A9
:101B2000FEF7E6FB6421B0FBF1F04FEA001A022059
:101B30006168A0FB01510B461920A9FB00712A46E0
:101B40003846FEF7D5FB834602206168A0FB0150B2
:101B500003461920A9FB00712A463846FEF7C8FB48
:101B60006421B0FBF1F000EBC00101EB0010ABEB26
:101B70008000322101EBC0006421B0FBF1F000F0E5
:101B8000F8000AEB400A02206168A0FB01500346FE
:101B90001920A9FB007001462A463846FEF7A8FB2B
:101BA000834602206168A0FB015003461920A9FB6F
:101BB00000712A463846FEF79BFB6421B0FBF1F02A
:101BC00000EBC00101EB0010ABEB8000322101EB18
:101BD000C0006421B0FBF1F000F007005044216820
:101BE00088606AE004206168A0FB01500346192068
:101BF000A9FB007001462A463846FEF779FB82466B
:101C000004206168A0FB015003461920A9FB007065
:101C100001462A463846FEF76BFB6421B0FBF1F023
:101C200000EBC00101EB0010AAEB8000322101EBB8
:101C300000106421B0FBF1F000F0F00A04206168AC
:101C4000A0FB017003461920A9FB00513A46284623
:101C5000FEF74EFB6421B0FBF1F00AEB001A042002
:101C60006168A0FB01510B461920A9FB00712A46AF
:101C70003846FEF73DFB834604206168A0FB015017
:101C800003461920A9FB007001462A463846FEF794
:101C90002FFB6421B0FBF1F000EBC00101EB001061
:101CA000ABEB8000322101EB00106421B0FBF1F0BE
:101CB00000F00F00504421688860BDE8F88F0000F4
:101CC000001001400014014000BFFEE70248006818
:101CD000C0F30220704700000CED00E010B50028B2
:101CE00004DB0A07130E054A135406E00A07140E14
:101CF000034A00F00F031B1FD45410BD00E400E0A2
:101D000018ED00E02DE9F04782461C4A92891B4BF2
:101D1000DB89D21A90B24021884201DA024600E003
:101D20000A46144600BF0026144800780121B1EB92
:101D3000D01F18D18026B4B100BF114F4FF040081A
:101D40000E482546D0F80890454501D9881E05E083
:101D50002A4649463846FEF782FD002010B1002091
:101D6000BDE8F08700BF0CB1054800E00020024646
:101D700023463146504603F0ABFFF1E7E004002074
:101D8000F40400202DE9F84307460C461546B846F2
:101D90004FEAA50905E0204601460A68C8F8002078
:101DA000241DB9F10000A9F101011FFA81F9F2D156
:101DB00005F003064EB10090324621466846FEF714
:101DC0004EFD0098C8F8000000BFBDE8F8832DE97B
:101DD000FF5F0446884615469B46A088A0EB0B0093
:101DE0001FFA80F9A5EB090080B20390E088C0F3E8
:101DF0000E0000FB09F01FFA80FAE088C0F30E0025
:101E00000399484387B2E188C1F30E0120680BFBB8
:101E100001060E9810B101286FD117E04D4509DC7D
:101E2000E088C0F30E0000FB05F231464046FEF7A5
:101E300016FD0AE0524631464046FEF710FD08EB1B
:101E40000A003A462168FEF70AFD57E04D4509DCD5
:101E5000E088C0F30E00684382B231464046FFF787
:101E600091FF48E04FF6FC700AEA0000029031460C
:101E70004046029AFFF786FF029806440AF00300E4
:101E80000190019800282DDDC4463A46DDF804E0B3
:101E9000CEF1040E1FFA8EF39A4201DA964600E064
:101EA0009E460EF0FF017A1A97B200220092684611
:101EB00003E016F8012B00F8012B019A531EDBB248
:101EC0000193002AF5D1266803E016F8012B00F8EB
:101ED000012B0A1EA1F10103D9B2F6D1009ACCF868
:101EE000002000E02668002F04DD3A4631464046D7
:101EF000FFF748FF00BF01E0FFE700BF00BFBDE8FC
:101F0000FF9F2DE9F84304460F461546B8464FEAB1
:101F1000A50906E02046D8F800100246116000BF6F
:101F2000241DB9F10000A9F1010189B28946F1D15E
:101F300005F0030646B1D8F8000000903246694625
:101F40002046FEF78CFC00BFBDE8F8832DE9FF5F5B
:101F500004468A4615469B46A088A0EB0B001FFA54
:101F600080F8A5EB080080B20390E088C0F30E0073
:101F700000FB08F01FFA80F9E088C0F30E00039917
:101F8000484387B2E188C1F30E0120680BFB0106CC
:101F90000E9810B101286CD117E0454509DCE088A6
:101FA000C0F30E0000FB05F251463046FEF757FC29
:101FB0000AE04A4651463046FEF751FC0AEB090159
:101FC0003A462068FEF74BFC54E0454509DCE088C2
:101FD000C0F30E00684382B251463046FFF791FFCE
:101FE00046E04FF6FC7009EA000002905146304688
:101FF000029AFFF786FF0298064409F00300019059
:10200000019800282BDDD4463A46DDF804E0CEF1F5
:10201000040E1FFA8EF39A4201DA964600E09E46BD
:102020000EF0FF017A1A97B2DCF8002000926846A1
:1020300003E010F8012B06F8012B019A531EDBB2C6
:102040000193002AF5D1266803E010F8012B06F869
:10205000012B0A1EA1F10103D9B2F6D100E02668D6
:10206000002F04DD3A4651463046FFF74AFF00BFD5
:1020700000E000BF00BFBDE8FF9F30380A2801D252
:10208000012070470020704770B50446002600BF4D
:1020900000BF03F0C3F920B103F0CEF908B9012065
:1020A00000E0002008B1E07808B9002070BD00BF52
:1020B00004F1100002F02FFE054600BF402D01D2B2
:1020C0000020F3E700BF00BFE178002003F002FD2D
:1020D00008B90020EAE700BF04F1100002F01BFE7F
:1020E0000546402D07D3E178402304F1A8020020E3
:1020F00003F0EEFDDAE7E178002003F081FD002037
:10210000D4E770B505460C462078C00908B1002018
:1021100000E08020064600231A463146284603F098
:10212000D7FD70BD00BF70472DE9F04704468846D3
:1021300015461F46A28829463846814202DB0B1A03
:102140009BB204E0A0EB010CCCEB42039BB299469E
:10215000B9F1000F02D10020BDE8F087A088484502
:1021600010DA2046294683888B4203DC8388CB1A09
:102170009AB202E083880B449AB2428100BF1746AC
:10218000B4F80490A188384601E0421A90B288421F
:10219000FBDA064600BFE388C3F30E03206806FBA4
:1021A0000301E088C0F30E024046FEF758FB00BF73
:1021B0000120D1E72DE9F84F04468A4617461D460F
:1021C000DDE90A8BA28829464046814202DB0B1AD0
:1021D0009BB204E0A0EB010CCCEB42039BB21E4689
:1021E00016B90020BDE8F88FA088B0420FDA20466B
:1021F000294683888B4203DC8388CB1A9AB202E09B
:1022000083880B449AB2428100BF9046A688BE42A2
:1022100000DA3746A188404601E0421A90B288426F
:10222000FBDA81464B463A4651462046CDF800B08F
:10223000FFF7CDFD3846D5E72DE9FC4104460F46B2
:1022400015461E466089CDE9000623892A4639468F
:102250002046FFF7AFFF05466189A0882A4600F0B7
:1022600087F860812846BDE8FC812DE9FF4F83B0E7
:102270000446154698461DB9002007B0BDE8F08F0A
:102280002689678904980290E079C00938BBA38841
:10229000B446B9469A4660464946884204DBA0EBFC
:1022A000010B1FFA8BFB05E0A1EB000ECEEB4A0BF6
:1022B0001FFA8BFBCDF804B0DDF804B05B4502DDFE
:1022C0000198181A00E0002082B200BF294610468B
:1022D000814201DA0B4600E003461D462EE0A0884D
:1022E000A8420EDCB8F1000F08D1A188691AE28873
:1022F000C2F30E02029801FB02000290A5883E463E
:102300001CE0A28831463846814202DB0B1A9BB2A0
:1023100004E0A0EB010CCCEB42039BB2994609EB25
:102320000500A1884900884207DBA188491B8AB2C1
:10233000A088394600F01CF8064600BFB5B1A18858
:10234000304601E0421A90B28842FBDA81464B46A1
:102350002A46CDF8008020460299FFF7F7FDA088B5
:102360002A46314600F004F8208100BF284684E761
:1023700070B503468C18A0B2814202DC5C00844236
:1023800008DC5D006D1E4FF6FF76751BACB20519BB
:10239000A8B200BF70BD00002DE9F04188B006462C
:1023A0000D461C4828B1102104A8AFF30080044654
:1023B00006E004A81849016018494160082400BFDC
:1023C000B4EB550F00D96C0800201DE0002118E087
:1023D0000FF24C0898E88810D8F80C808DE8881027
:1023E000CDF80C8004AB1B5C8F003B4103F00F0267
:1023F0001DF80230C1F1010707EB400726F817303E
:10240000491C0229E4D3401CA042DFD3600008B07D
:10241000BDE8F081000000000123456789ABCDEFE6
:10242000303132333435363738394142434445460A
:1024300070B50546464800EB05100468444800EBBB
:102440000510067AC0214348FEF778FA0020424979
:102450000870D4F8000820F4FE60C4F800080020DA
:102460000DE004F5306101EB4011096841F00062B4
:1024700004F5306101EB40110A60411CC8B2B04262
:10248000EFDB002015E004F5106101EB4011096855
:1024900001F0004159B104F5106101EB40110968E8
:1024A00041F0904204F5106101EB40110A60411CBB
:1024B000C8B2B042E7DB1020202141EA801121613F
:1024C00000BF00BF216901F020010029FAD100BF3F
:1024D00000BF1020206100BF00BF206900F0100085
:1024E0000028FAD100BF4FF00110C4F81C080920E1
:1024F000C4F81408C4F810083146402000F030F841
:102500006062102015490880114800EB0510C06872
:102510000988C1EB900040F48010A062D4F8000953
:1025200020F00300C4F8000940200A4948814021F6
:10253000084841834FF43160005940F0C0414FF4E6
:1025400031600151A06940F44020A06170BD0000DD
:10255000C4600008E40000203600002034000020A1
:1025600010B502461346D01702EB90708010400061
:102570000F30022404FB010080B210BDF0B591B011
:10258000002417E0204602F0BFFC88B1402201A9D8
:10259000204602F0C9FC074601AD3E4632462946B8
:1025A000002002F0E5FC00BF002002F00BFD00BFA0
:1025B000601CC4B2022CE5DB11B0F0BD2DE9F04780
:1025C00082460D46144600BF2078C0F34110012812
:1025D00002D00020BDE8F08700BF0027454E00BFB5
:1025E000022F01D30020F5E73078A188884200D17E
:1025F00004E0781CC7B206F59476F1E700BF607876
:10260000202806D021281BD0222826D023286CD1B0
:1026100058E0012D0AD138A0FDF7E2FE072306F1AC
:1026200008022146504602F041FD08E0032D06D184
:10263000364820B106F108013846AFF3008056E075
:10264000012D09D132A0FDF7CBFE072306F10802C8
:102650002146504602F02AFD49E0012D04D12146D1
:10266000504602F00FFD2CE0032D2AD16088002196
:1026700001228A4002400AB1012200E00022904675
:1026800000BF6088012101228A4002400AB1012274
:1026900000E00022914600BFA078307188F001016F
:1026A00006F11C0002F056FB4A4641461DA0FDF70C
:1026B00097FE284820B14A4641463846AFF300808D
:1026C00000BF14E0012D04D12146504602F0DAFC8F
:1026D0000AE0032D08D120A0FDF782FE224818B1A0
:1026E00061883846AFF3008001E0002072E700BF48
:1026F00001206FE7A40100202020536574204C695D
:102700006E6520436F64696E670D0A00000000006B
:102710002020476574204C696E6520436F64696EA4
:10272000670D0A00202053657420436F6E74726F2A
:102730006C204C696E652053746174653A20445472
:1027400052203D2025642C20525453203D202564E6
:102750000D0A000000000000202053656E64204236
:102760007265616B0D0A00000000000001207047D7
:1027700038B54FF414711948FEF7E0F818480021F5
:102780000170002526E005EB850000EB451013499C
:1027900001EBC004FF2060714FF4E130A060002124
:1027A000217361730821A17300200123402204F1E9
:1027B0002801009004F1100002F03AFA01200346CB
:1027C000402204F16801009004F11C0002F030FA8C
:1027D000681CC5B2022DD6DB38BD0000A401002064
:1027E000370000202DE9FC4781460D46904600BF8A
:1027F0006879022802D1A879022802D00020BDE819
:10280000FC8700BF0026002011E000EB800101EBF7
:102810004011444A02EBC101897831B900EB8001D3
:1028200001EB401102EBC10603E0411CC8B20228D3
:10283000EBDB00BF00BF4EB94FF49A723A493BA0A0
:10284000FDF7CEFD00BF00BF0020D8E700BFA8788D
:102850003070092700BF284601780C1800BF08E037
:1028600000BF2078384487B2204601460A780A44DF
:10287000144600BF6078242801D14745F0DD00BF31
:10288000607805281ED1A24600BF5146484603F095
:1028900077F948B94FF4A372234924A0FDF7A0FDAE
:1028A00000BF00BF0020AAE700BF9AF802007070C6
:1028B00000BF2078384487B2204601460A780A448F
:1028C000144600BF00BF6078042825D160790A282B
:1028D00022D100BF2078384487B2204601460A78CA
:1028E0000A44144600BFB01CF11C02231A46CDE96D
:1028F00000102146484603F07FFA48B940F25512CD
:1029000009490AA0FDF76CFD00BF00BF002076E773
:1029100000BF07F10E0087B23046FFF7B5FB38461F
:102920006DE70000A40100207461000825732025D4
:10293000643A20415353455254204641494C454442
:102940000D0A000070B50646002522E005EB850063
:1029500000EB4510104901EBC004002020602071FD
:102960000E48007800F0010018B904F1100002F0E0
:1029700059F90A480078C0F3400018B904F11C0066
:1029800002F050F9012104F11C0002F0E3F9681C87
:10299000C5B2022DDADB70BDA40100203700002093
:1029A0002DE9F04781460D4692461E4600270FE06E
:1029B00007EB870000EB4710394901EBC004E078D2
:1029C000A84202D0A078A84200D103E0781CC7B288
:1029D000022FEDDB00BF00BF022F0ADB40F2B51271
:1029E000304931A0FDF7FCFC00BF00BF0020BDE86E
:1029F000F08700BFE078A84230D1B2B204F1A8015C
:102A000004F1100002F0DDF92D48D0B1607940B238
:102A1000401CB0B14FF0000811E0617904F1A8004A
:102A200010F80800814208D104F1100002F02DF9DD
:102A300018B961793846AFF3008008F10108B04554
:102A4000EBD3204838B104F1100002F01EF910B9A0
:102A50003846AFF300802046FFF716FBA078A84267
:102A60001CD1194810B13846AFF30080384602F047
:102A7000A9FA98B904F11C0002F0F1F870B96EB12E
:102A800006F03F0050B9A178484603F023F828B17A
:102A9000A17800231A46484603F01AF90120A6E758
:102AA000A40100207E61000825732025643A20419E
:102AB0005353455254204641494C45440D0A0000A9
:102AC00000000000000000000000000070B5054696
:102AD000284601F0BFFA286C040C240400BF0B4800
:102AE00084420FD00A4884420CD00A48844209D05C
:102AF0004FF40B72084909A0FDF772FC00BF00BF3C
:102B0000002070BD00BF0120FBE700000000544F13
:102B100000003155000032551F6100082573202543
:102B2000643A20415353455254204641494C454450
:102B30000D0A000070B50646002429E02046002159
:102B40001F4A1278904204DA1E4A126802EB4011C2
:102B50000BE01B4A1278521C904206DA00BF184A5A
:102B60001278821A184B03EB421100BF0D4600BFCA
:102B700045B940F21622154915A0FDF731FC00BFFA
:102B800000BF70BD00BF3046E9688847601CC4B212
:102B90000B480078401C8442D0DB2C211248FDF702
:102BA000ABFEFF2210211048001DFDF79DFEFF2205
:102BB0000C210D481430FDF797FE00BFE1E700003F
:102BC000400000203C0000208C610008E561000806
:102BD00025732025643A20415353455254204641E1
:102BE000494C45440D0A0000F40300200146054A03
:102BF00002EB01121068D0F8042822F00202C0F89B
:102C000004287047C46000080146054A02EB01121F
:102C10001068D0F8042842F00202C0F80428704777
:102C2000C46000087047000070B503460A461F4D97
:102C300005EB0315286800BF22F08005294600BF78
:102C4000C2F3C0152C46C4B100F5106505EB411563
:102C50002D6825F4001600F5106505EB41152E6072
:102C600000F5106505EB41152D6845F0805600F51F
:102C7000106505EB41152E6017E000F5306505EB9A
:102C800041152D6825F4001600F5306505EB41155A
:102C90002E6000F5306505EB41152D6845F0805636
:102CA00000F5306505EB41152E6070BDC46000086D
:102CB00070B50546324800EB05100468304800EB5B
:102CC0000510067A4FF00110C4F81C08012033E00B
:102CD00004F5306101EB4011096801F0004159B180
:102CE00004F5306101EB4011096841F0904204F5B0
:102CF000306101EB40110A600021224A02EB4012D0
:102D0000518104F5106101EB4011096801F00041A7
:102D100059B104F5106101EB4011096841F090428E
:102D200004F5106101EB40110A600022154901EB26
:102D300040114A83411CC8B2B042C9DB3146402031
:102D4000FFF70EFC606210200F49088000BF2021B1
:102D500041EA8011216100BF00BF216901F020011B
:102D60000029FAD100BF00BF1020206100BF00BFC2
:102D7000206900F010000028FAD100BF70BD0000EB
:102D8000C4600008E40000203400002070B505464F
:102D90000C4600BF00BFA088C0F30A000646A17819
:102DA0003246284600F004FE48B940F2D1220749D5
:102DB00007A0FDF715FB00BF00BF002070BD00BFDE
:102DC0002146284600F022FC0120F7E72A6100088E
:102DD00025732025643A20415353455254204641DF
:102DE000494C45440D0A000070B504460D460122C9
:102DF0002946204600F06AFC70BD00002DE9FF4F17
:102E000081B00C4691461D4600BF24F080008046EC
:102E100000BFC4F3C01007461C4800EB481000EB8D
:102E20000716C6F80090002070603581B8F1000FD9
:102E30000CD1174820F8175030F8170001233A46F4
:102E400041460090019800F0FDFC1BE0708995FB65
:102E5000F0F01FFA80FA708995FBF0F100FB115039
:102E60001FFA80FBBBF1000F00DC1DB90AF1010065
:102E70001FFA80FA53463A4641460095019800F001
:102E8000E1FC00BF012005B0BDE8F08FE4000020A8
:102E9000300000202DE9FF5F04460D46002003901E
:102EA0006078801E05287CD2DFE800F00335182703
:102EB000FB009F48007820F001009D4908700846FB
:102EC000007820F002000870002048700846007862
:102ED00020F00400087001200390EDE09448007891
:102EE00000F0010040B19248007820F00400001D7D
:102EF0008F49087001200390DEE08D48007800F0D3
:102F0000010038B18A48007820F004008849087030
:102F100001200390D0E0002621E030460021854AC0
:102F20001278904204DA844A126802EB40110BE0F6
:102F3000804A1278521C904206DA00BF7D4A12780D
:102F4000821A7E4B03EB421100BF0F462FB1F86986
:102F500018B120786168FA699047701CC6B275484C
:102F60000078401C8642D8DB71480078C0F38000AE
:102F7000002846D06E48007820F004006C490870A4
:102F80006F4A07CA8DE8070020788DF800006E466A
:102F90002F4600BF00BF6B48B346B946D0F800804B
:102FA00000E086E0B9F1000F06D100BF0020D8F89C
:102FB0000010884700BF00BF594608F1040001F027
:102FC000D0FE8246B9F1000F06D100BF0120D8F82B
:102FD0000010884700BF00BF00BFBAF1000F08D142
:102FE0004FF4AD72584959A0FDF7FAF900BF00BF80
:102FF00006E000BF717830783A4602F005F900BF6C
:1030000000BF4B4AD078002101228A4002400AB119
:10301000012200E00022002A42D0494A0C3207CAAD
:103020008DE8070020788DF80000606801906E46FA
:103030002F4600BF00BF4348B346B946D0F80080D2
:10304000B9F1000F06D100BF0020D8F80010884762
:1030500000BF00BF594608F1040001F082FE82461D
:10306000B9F1000F06D100BF0120D8F80010884741
:1030700000BF00BF00BFBAF1000F09D14FF4AD721D
:10308000314932A0FDF7ACF900BF00BF07E008E00E
:1030900000BF717830783A4602F0B6F800BF00BF42
:1030A0000AE030480078401C2E4908700120039047
:1030B00002E00120039000BF00BF039870B32646D2
:1030C0002F4600BF00BF1F48B346B946D0F8008066
:1030D000B9F1000F06D100BF0020D8F800108847D2
:1030E00000BF00BF594608F1040001F03AFE8246D5
:1030F000B9F1000F06D100BF0120D8F800108847B1
:1031000000BF00BF00BFBAF1000F08D14FF4AD728D
:103110000D490EA0FDF764F900BF00BF06E000BF37
:10312000717830783A4602F06FF800BFBDE8FF9F33
:10313000F4030020400000203C0000208C610008C7
:103140004862000854000020D06100082573202543
:10315000643A20415353455254204641494C45441A
:103160000D0A00003800002070B50546304800EB1D
:10317000051004682046FFF7A9FC00B970BD284679
:10318000FFF742FD204600F061FF18B1204600F035
:10319000F3FE02E0204600F0C1FED4F8000E20F05D
:1031A0000F00C4F8000EE06840F00700E060E0683F
:1031B00020F0005040F08040E060206820F01000D7
:1031C00040F0C0002060D4F8000840F00400C4F8CB
:1031D00000081020202141EA8011216100BF00BFBA
:1031E000216901F020010029FAD100BF00BF1020A1
:1031F000206100BF00BF206900F010000028FAD154
:1032000000BF66696069304360616668606830432A
:1032100060600848A061A06840F08000A060A068DD
:1032200040F00100A0602846FFF7E0FC00BFA5E7E2
:10323000C46000081438008030B501460A460B4BC4
:1032400003EB02131B7958B200280BDB00F01F04BC
:103250000123A340064C450944F82530BFF34F8FA6
:10326000BFF36F8F00BF00BF30BD0000C460000817
:1032700080E100E010B501460A460C4B03EB021357
:103280001B7958B200280DDB00BF00BF00F01F04FF
:103290000123A3404409A40004F1E024C4F8003150
:1032A00000BF00BF00BF00BF10BD0000C460000829
:1032B0002DE9FE4F0546644800EB05100468D4F87C
:1032C0001880606900EA080606F4805028B14FF4BF
:1032D000805060612846FFF7ABF806F4005038B321
:1032E0004FF400506061D4F80808C0F3410030B1D9
:1032F000012809D0022804D0032804D105E00227C0
:1033000005E0012703E000BF00BF002700BF00BFAA
:103310004FF001094D4A07CA8DE807008DF80050AB
:103320008DF8047049466846FFF7B4FD00BF00BF42
:1033300006F4006098B14FF40060606104274FF01C
:10334000010900200090019002908DF800508DF846
:10335000017049466846FFF79DFD00BF00BF06F0BB
:10336000004098B14FF00040606105274FF001091F
:1033700000200090019002908DF800508DF80170AF
:1033800049466846FFF786FD00BF00BF06F004000F
:10339000B8B1676807F0040088B14FF002094FF038
:1033A000010A00200090019002908DF800508DF8E5
:1033B000019051466846FFF76DFD00BF00BF676092
:1033C00000BF06F00800E0B108206061D4F80808EA
:1033D000C0F30D271E48007818B9A06920F0080036
:1033E000A0614FF00109194A243207CA8DE807008D
:1033F0008DF80050019749466846FFF74BFD00BF26
:1034000000BF06F0100080B1A06920F01000A0619C
:1034100000BF284600F0D4FC606900F010000028CE
:10342000F7D1A06940F01000A06106F4002010B1AF
:10343000284600F03BFC06F4802010B1284600F03E
:1034400079FBBDE8FE8F0000C4600008E46000085E
:10345000360000202DE9F04105460E460D4800EBF0
:1034600005100768D7F8000820F4FE6040EA06104F
:10347000C7F800080020012109B1802200E00022E5
:1034800042EA000400231A4621462846FFF7B6FC0C
:10349000BDE8F081C46000080246094B03EB02134B
:1034A0001868084B197031B108234361836943F0F0
:1034B0000803836103E0836923F008038361704795
:1034C000C4600008360000202DE9F04105460E4694
:1034D0000EA0FCF785FF002411E02F5DFCF700FF34
:1034E0000068C05D00F03E0008B1384600E02E20C4
:1034F0008046414606A0FCF773FF601C84B2B442CC
:10350000EBDB04A0FCF76CFFBDE8F08120207C0021
:10351000256300007C0D0A0069B9826B42F4803299
:103520008263084A90420BD1074A126822F0804217
:10353000054B1A6004E0826B22F48032826300BF84
:1035400070470000000004405038024010B50246A9
:10355000002946D1234B1B68234CA34201D30620EC
:1035600038E0204B1B68214CA34201D3072031E0F7
:103570001C4B1B681E4CA34201D308202AE0194BA8
:103580001B681C4CA34201D3092023E0154B1B6888
:10359000194CA34201D30A201CE0124B1B68174CA4
:1035A000A34201D30B2015E00E4B1B68144CA34221
:1035B00001D30C200EE00B4B1B68124CA34201D32D
:1035C0000D2007E0074B1B680F4CA34201D30E20D0
:1035D00000E00F20D36823F4705343EA8023D360C4
:1035E00000BF10BD100000200048E801E09DA301CD
:1035F00000366E0140A44C01002D3101A0491A0192
:10360000807306010024F400C0E1E4002DE9F041DC
:1036100005462C4F07EB05173A688F7827F0800C8A
:1036200060468F784FEAD71C6646274F07EB401756
:1036300007EB061300BF8F88C7F30A075F818F79F6
:103640001F73CF7807F003074FF4004C4CEA87470D
:1036500091F803C00CF0030CBCF1010F02D04FF045
:10366000805C01E04FF0000C47EA0C07B3F80AC099
:1036700047EA0C048EB902F5306707EB40173C604F
:10368000D2F81C7800F1100C4FF0010808FA0CF881
:1036900047EA0807C2F81C7811E044EA805C02F5AA
:1036A000106707EB4017C7F800C0D2F81C784FF03E
:1036B000010C0CFA00FC47EA0C07C2F81C78BDE8C4
:1036C000F0810000C4600008E4000020F0B5054669
:1036D0000B4614465A4901EB05110A6800BF23F056
:1036E0008001084600BFC3F3C0110F46002F5BD016
:1036F00002F5106128B101EB4016366806F000466D
:103700008EB901EB4016366814B14FF4001C01E08D
:103710004FF0000C4CF0006C46EA0C0601EB401C2C
:10372000CCF800602EE001EB4016366846F00066EB
:1037300001EB401CCCF8006000BF01EB4016B668FE
:1037400006F04006002EF8D001EB4016366814B1A2
:103750004FF4001C01E04FF0000C4CF0804C46EAA6
:103760000C0601EB401CCCF8006000BF01EB4016DA
:10377000B66806F00206002EF8D0022601EB401CC7
:10378000CCF8086006464FF0200C4CEA861CC2F8C4
:1037900010C000BF00BFD2F810C00CF0200CBCF16C
:1037A000000FF8D100BF49E002F5306128B101EB0C
:1037B0004016366806F000467EB901EB40163668C2
:1037C00014B14FF4001C01E04FF0000C46EA0C0667
:1037D00001EB401CCCF800602FE0D2F8046846F4FE
:1037E0000076C2F8046800BF566906F08006002E15
:1037F000FAD001EB4016366814B14FF4001C01E01A
:103800004FF0000C4CF0804C46EA0C0601EB401CDB
:10381000CCF8006000BF01EB4016B66806F0020667
:10382000002EF8D0022601EB401CCCF80860D2F83C
:10383000046846F48066C2F8046800BFF0BD00006A
:10384000C46000082DE9F04106461D46069C554817
:1038500000EB06100368C1B9534800EB411000EBC0
:10386000021CDFF8488138F81200BCF80A70B84230
:1038700001DA804600E0B84644464C4830F8120071
:10388000001B4A4F27F8120000BF012A42D103F55E
:103890001060274665F3DF4700EB411CCCF8107041
:1038A00000EB41173F6847F0044700EB411CCCF8A0
:1038B000007000EB41173F6807F44027B7F5802FF1
:1038C0001CD1394F07EB411707EB02173F7B012F44
:1038D00014D1D3F808C80CF4807700EB411CDCF855
:1038E00000C017B14FF0805801E04FF000584CEA8B
:1038F000080C00EB4118C8F800C000BF4CB1D3F869
:1039000034784FF0010C0CFA01FC47EA0C07C3F8BD
:10391000347845E003F5306000EB41173F6907F06C
:10392000604700EB411CCCF8107000EB41173F6979
:10393000A44665F3DF4C47EA0C0700EB411CCCF8CA
:10394000107000EB41173F6847F0044700EB411C43
:10395000CCF8007000EB41173F6807F44027B7F53B
:10396000802F1CD1104F07EB411707EB02173F7B4D
:10397000012F14D1D3F808C80CF4807700EB411C58
:10398000DCF800C017B14FF0805801E04FF000584C
:103990004CEA080C00EB4118C8F800C000BF00BF9B
:1039A000BDE8F081C4600008E40000203000002081
:1039B0002DE9F84F05460E469046454800EB0510A8
:1039C0000768434800EB051090F808A000BF26F0F8
:1039D0008000834600BFC6F3C010009000BFD345EF
:1039E00009DB84223B493CA0FCF7FAFC00BF00BF86
:1039F0000020BDE8F88F00BF042008EB0001491E3D
:103A0000B1FBF0F18CB2009800BBA104080C514648
:103A1000FEF7A6FD8146786A484516D200BF3448B5
:103A2000008848442A4901EB0511C968B0EB910FA1
:103A300008D9A222274928A0FCF7D2FC00BF00BF6A
:103A40000020D6E700BFC7F824903FE0B86800F038
:103A5000800018B94FF6FF7000EA440400BF244804
:103A600000882044796A0844194901EB0511C968A6
:103A7000B0EB910F08D9AF22164917A0FCF7B0FCA4
:103A800000BF00BF0020B4E700BF194800882044F1
:103A9000174908800E4800EB0510C36808460088E7
:103AA000A3EB8002A10013A0FCF79AFC084800EBEE
:103AB0000510C0680E490988C1EB900040EA044235
:103AC000ABF1010007F5827141F82020012090E759
:103AD000C46000081461000825732025643A204161
:103AE0005353455254204641494C45440D0A000069
:103AF0003400002020202020416C6C6F63617465CD
:103B000064202575206279746573206174206F6666
:103B1000667365742025750000BF054A126802F0BF
:103B20004002002AF9D0C2B2014B5A60704700002F
:103B3000001001402DE9F04F85B00746574800EBD3
:103B40000710D0F80080554800EB0710007A049069
:103B500008F5106500249AE0D8F818080121A14062
:103B60000840002870D04E4800EB441000F11006C9
:103B700005EB4410806800F0010058B3012005EB0C
:103B80004411886064B94748408848B14548408836
:103B900001231A46214600903846FFF753FE19E0EC
:103BA00044F08009B6F808A04FF0000B0120039004
:103BB0003D4A07CA8DE807008DF800708DF8049023
:103BC000CDF808A08DF805B068460399FFF762F9B3
:103BD00000BF00BF05EB4410806800F080000028A3
:103BE00052D0D8F834080121A140084000284BD019
:103BF00005EB44100069C0F3C94003904FF0000A80
:103C000030E005EB441000691FFA80FB58467189CB
:103C1000884201DA024600E00A46914600BF05EB01
:103C20004410806980B2B9EB800F00D91DE0706844
:103C300058B108F5805000EB043002904A46706895
:103C4000029901F05DF809E01FE04B462146384635
:103C5000326802F02FF93068484430600AF1010000
:103C60001FFA80FA03988245CBDB00BF05EB4410B6
:103C70000069C0F3120030B9D8F834080121A1401E
:103C80008843C8F8340800BF00BF601CC4B2049861
:103C90008442FFF661AF05B0BDE8F08FC460000854
:103CA000E400002030000020FC6000082DE9F04F07
:103CB00085B005463C4800EB051007683A4800EB24
:103CC0000510007A0490002467E0D7F8180804F182
:103CD000100101228A40104000285CD007F53060B6
:103CE00000EB4416D6F808B00BF00800F8B14FF01E
:103CF00008080BF4004028B1386C2C49884201D3E5
:103D000048F40048C6F808804FF00109284A07CA5D
:103D100001AB07C38DF80450264801680291406842
:103D20000390494601A8FFF7B5F800BF00BFB0688F
:103D300000F0010070B30120B0601F4800EB441098
:103D4000039064B91D48008848B11C4800880123CD
:103D50000022214600902846FFF774FD19E00398E1
:103D6000B0F808804FF000094FF0010A104A0C32F9
:103D700007CA8DE807008DF800508DF80440CDF893
:103D800008808DF8059051466846FFF783F800BF1C
:103D900000BF00BF00BF601CC4B20498844294DB23
:103DA00005B0BDE8F08F0000C46000080A30544F31
:103DB000F060000828000020E4000020300000200F
:103DC0002DE9F14F3549009801EB0010066806F522
:103DD0008059D6F820A0CAF3434B0AF00F07CAF364
:103DE0000A1806F5306000EB4715BBF1070F4ED2FD
:103DF000DFE80BF04D0412360D4D05004AE0D9F80E
:103E0000000027490860D9F80000486042E02869AE
:103E100040F0C04028613DE0224800EB4714606854
:103E200028B142464946606800F0D6FF07E04246A6
:103E30002168009800F0BCFD206840442060608943
:103E400040450CDD20892969401A20813FB920892D
:103E500015490988401A208100201349088019E07B
:103E6000A7B9B8F1000F11D1306C104988420DD3B9
:103E7000A86848F22001014039B1012100F0200278
:103E80000AB141F02001A96000BF00BF02E000BFFD
:103E900000BF00BF00BFBDE8F88F0000C46000088D
:103EA00028000020E4000020300000200A30544F99
:103EB00070B505460C461646606901F019FD05A06F
:103EC0002168FCF78DFA324601212846636998473C
:103ED00070BD00002020257320636F6E74726F6CBC
:103EE00020726571756573740D0A0000FCF7F4FFAC
:103EF000FDF770FDFDF7E8FCFDF740FD01F0A0FCCB
:103F0000002001F083F907E000BF0021481E01F006
:103F10009BFA00BFFEF732FBF6E7000010B504463F
:103F20000FA0FCF75DFAE06840F04000E06000217F
:103F30002046FFF7F1FA204600F070FDE06820F41B
:103F4000705040F4A050E06000212046FFF7FEFAD8
:103F5000D4F8000820F00300C01CC4F8000810BD0D
:103F600046756C6C73706565642050485920696EA5
:103F700069740D0A0000000070B50446E56825F07C
:103F8000400594F848000221B1EB901F0BD121A00D
:103F9000FCF726FA45F0100525F0880525F44015B4
:103FA00025F420250AE022A0FCF71AFA25F01805CE
:103FB0005120005D800908B145F00805E56094F8DE
:103FC000480081092046FFF7A7FA204600F026FDA9
:103FD00025F470555120005D800908B1052000E0EE
:103FE000092045EA8025E56094F8480081092046CB
:103FF000FFF7ACFAD4F8006826F0030600BF94F887
:1040000048000221B1EB901F01D146F48046C4F86C
:10401000006870BD48696768737065656420554CB9
:1040200050492050485920696E69740D0A000000FB
:104030004869676873706565642055544D492B2045
:1040400050485920696E69740D0A0000014600202D
:104050007047000070B5054605F13C0608A0FCF766
:10406000BFF9002405E056F8241012A0FCF7B8F9B7
:10407000641C052CF7D3716911A0FCF7B1F970BD70
:10408000677569642C2067736E707369642C206790
:104090006877636667312C20676877636667322CC0
:1040A00020676877636667332C2067687763666785
:1040B000340D0A003078253038582C2000000000DC
:1040C0003078253038580D0A000000002DE9F843FB
:1040D00007460C46002001F00BFC00BF2078C0F31F
:1040E000411003280ADB40F2C522FD49FDA0FCF780
:1040F00077F900BF00BF0020BDE8F88300BF20783B
:10410000C0F34110022808D1FC4801F0F1FB22461F
:104110000121384601F091FBEEE72078C0F3411011
:1041200078B960780C280CDC6078F54A52F82010D9
:10413000F4A0FCF755F96078062802D0EEA0FCF751
:104140004FF9207800F01F0020B1012871D002281B
:1041500070D150E12078C0F3411001282DD1A08802
:10416000C1B20E4600BF102E01D30020C4E700BF2D
:10417000E649885D0021E64A1278904204DAE54A71
:10418000126802EB40110BE0E14A1278521C904297
:1041900006DA00BFDE4A1278821ADF4B03EB4211C7
:1041A00000BF0D4600BF0DB90020A5E700BF2246A5
:1041B00029463846FFF77CFE9EE72078C0F3411081
:1041C00018B100BF00BF002096E760780A286ED2C1
:1041D000DFE800F09F88B670B60565B61621204668
:1041E00001F08CFBA1783846FFF734F9C748001F6F
:1041F000007820F00200801CC449091F0870A3E069
:10420000C248001F4078009001236A462146384684
:1042100000F04CFF98E0A578BC48001F4078A84209
:1042200038D0BA48001F4078C8B1B848001F41785C
:1042300001E08BE0BBE1B9A0FCF7D2F800213846E1
:10424000FFF72AF93846FEF733FDB048001F86789D
:104250003846FEF76FFCAD48001F867000BFAB48C4
:10426000001F4570A5B12946384600F099FA60B99B
:1042700040F215329A499BA0FCF7B2F800BF00BF8C
:104280000020A249091F487036E701F0C5F801E097
:1042900001F0D2FA2146384600F0F4FE54E000BFA7
:1042A0002146384600F08AF910B9002024E747E09B
:1042B00000BF49E06088012810D1A6A0FCF790F863
:1042C0009248001F007820F0080008308F49091F2D
:1042D00008702146384600F0D5FE01E000200BE7CB
:1042E00000BF31E000BF6088012801D0002003E753
:1042F00000BF9FA0FCF774F88448001F007820F0EE
:1043000008008249091F08702146384600F0BAFEAD
:104310001AE07E48001F0078C0F340107B49091F57
:104320000978C1F3C00109B1022100E0002108436E
:10433000009002236A462146384600F0B7FE03E0AB
:1043400000BF00BF0020D7E600BF34E1A088C1B2A3
:104350000E4600BF102E01D30020CDE600BF6B49F2
:10436000885D00216A4A1278904204DA694A12682C
:1043700002EB40110BE0664A1278521C904206DABA
:1043800000BF634A1278821A634B03EB421100BFED
:104390000D4600BF0DB90020AEE600BF22462946FB
:1043A0003846FFF785FD28BB00BF2078C0F34110D9
:1043B00008B10020A0E600BF60780A2802D00B28D0
:1043C00015D100E000BF002001F092FA60780A28C1
:1043D00008D10020009001236A462146384600F0AB
:1043E00065FE03E02146384600F04CFE01E0002067
:1043F00082E600BFDFE0A088C1B20D46284620F06B
:10440000800188462846C109894600BFB8F1060FD9
:1044100009D340F28632324932A0FBF7E1FF00BFF8
:1044200000BF002068E600BF3849103101EB4801A9
:1044300011F809000021364A1278904204DA354A10
:10444000126802EB40110BE0314A1278521C904284
:1044500006DA00BF2E4A1278821A2F4B03EB421164
:1044600000BF0E462078C0F3411050B100BF0EB916
:10447000002041E600BF224631463846FFF718FDCE
:104480003AE6607820B101280ED003287ED10CE0F6
:104490002946384601F008FC009002236A4621466E
:1044A000384600F003FE80E000BF608858B96078AD
:1044B000012804D12946384601F024FB03E02946AF
:1044C000384601F0B5FB56B1224631463846FFF773
:1044D000EFFC002001F00CFA0C48001F57E05FE0F1
:1044E0000662000825732025643A20415353455243
:1044F00054204641494C45440D0A00003B580008F1
:10450000186000082020257300000000F803002038
:10451000400000203C0000208C6100082020436CFB
:104520006561722063757272656E7420436F6E668A
:10453000696775726174696F6E202825752920621C
:1045400065666F726520737769746368696E670D5D
:104550000A00000020202020456E61626C65205218
:10456000656D6F74652057616B6575700D0A00008D
:104570002020202044697361626C652052656D6F54
:1045800074652057616B6575700D0A0009E090F83D
:10459000210000F0010018B92146384600F072FDF4
:1045A00003E000BF00BF0020A6E500BF03E000BF9E
:1045B00000BF0020A0E500BF01209DE52DE9F047E8
:1045C00081460D466888010A0F466888C1B2884650
:1045D000062F7AD006DC012F09D0022F39D0032F05
:1045E00074D165E0072F35D00F2FF9D11BE049A01A
:1045F000FBF7F6FE00F0BEFD044600BF54B940F2E2
:104600002B42474947A0FBF7EBFE00BF00BF00204D
:10461000BDE8F08700BF00BF122322462946484666
:1046200000F044FDF4E745A0FBF7DAFE00F09AFD48
:10463000044600BF0CB90020EAE700BFA01C0146F9
:104640000E8800BF334622462946484600F02EFD1C
:10465000DEE700BF022F14D141463AA0FBF7C0FEAF
:10466000404600F081FD044600BF4CB940F2524282
:104670002B492CA0FBF7B4FE00BF00BF0020C7E70A
:104680000BE036A0FBF7ACFE404600F079FD044697
:1046900000BF0CB90020BBE700BFA01C01460E887C
:1046A00000BF334622462946484600F0FFFCAFE7EC
:1046B000414632A0FBF794FEA988404600F064FD15
:1046C000044600BF1CB90020A2E70BE01FE000BFBA
:1046D00000BF20780646334622462946484600F069
:1046E000E5FC95E729A0FBF77BFE00F047FD0446BB
:1046F00000BF0CB900208BE700BF00BF2078064642
:10470000334622462946484600F0D0FC80E7002088
:104710007EE70000204465766963650D0A000000AD
:104720003162000825732025643A204153534552D5
:1047300054204641494C45440D0A000020424F5345
:104740000D0A000020436F6E6669677572617469B7
:104750006F6E5B25755D0D0A00000000204F7468C8
:10476000657220537065656420436F6E6669677576
:10477000726174696F6E0D0A00000000205374723C
:10478000696E675B25755D0D0A0000002044657643
:10479000696365205175616C69666965720D0A000F
:1047A0002DE9F34F83B00499491EC8B200F0DCFC38
:1047B000064600BF16B1707802280BD040F2C7320F
:1047C0006B496CA0FBF70CFE00BF00BF002005B0DA
:1047D000BDE8F08F00BFF07940096C49097860F3BB
:1047E00004116A480170F07980096849097860F31A
:1047F00045116648017006F10904708800EB060A4D
:10480000B1E00120029000BF60780B2808D120465B
:10481000C178029121460A46137813441C4600BF12
:1048200000BF00BF6078042809D040F2E23250494E
:1048300050A0FBF7D5FD00BF00BF0020C7E700BFB9
:10484000A146AAEB04001FFA80FB002573E028466E
:1048500000214F4A1278904204DA4E4A126802EB65
:1048600040110BE04A4A1278521C904206DA00BF0F
:10487000474A1278821A484B03EB421100BF884620
:1048800000BFB8F1000F09D140F2EB32384939A02E
:10489000FBF7A6FD00BF00BF002098E700BF5A4607
:1048A0004946D8F81030039898470746092F40D357
:1048B0005F453EDC39A0D8F80010FBF791FD029867
:1048C000012806D13949D8F81000884201D10220C8
:1048D0000290002001901FE099F80210019808440E
:1048E000C0B2009000BF2948001D0099405CFF281D
:1048F00009D040F20A421E491EA0FBF771FD00BF1D
:1049000000BF002063E700BF2048001D0099455408
:104910000198401CC0B20190DDE901018842DBDB57
:104920002B463A4649461948143000F089F83C4471
:1049300006E0681CC5B216480078401C854286DB3C
:1049400000BF00BF12480078401C854209DB40F2DE
:104950001942074907A0FBF743FD00BF00BF002035
:1049600035E700BF00BF5445FFF44BAF01202EE7F1
:104970001E62000825732025643A20415353455296
:1049800054204641494C45440D0A0000F4030020E0
:10499000400000203C0000208C610008202025738E
:1049A000206F70656E65640D0A000000E527000841
:1049B0002DE9F04104461346174800EB0410076840
:1049C00007F580554FEAA30C06E008462E6880469E
:1049D000C8F8006000BF091DBCF10000ACF1010681
:1049E000B6B2B446F1D103F0030292B1286806468C
:1049F00006F0FF0881F80080012A03DD00BFC0F344
:104A000007264E70022A03DD00BFC0F307468E70F2
:104A100000BFBDE8F0810000C4600008016941F0FA
:104A20000101016100BF016901F001010029FAD112
:104A300000BF016901F000410029FAD07047000071
:104A40002DE9F04780460E4691461F46344604EB5A
:104A5000090A16E000BF607805280DD1A5783A460E
:104A600029460AA0FBF7BCFC284620F0800108EB91
:104A70004102C109575400BF204601460A780A4442
:104A800014465445E6D3BDE8F08700002020426973
:104A90006E64204550202530327820746F20647277
:104AA000697665722069642025750D0A0000000092
:104AB00002460B4600BF107800F0010018B91078CC
:104AC000C0F3800008B10020704700BF107800F0EC
:104AD000010028B91078C0F3800008B9012000E077
:104AE0000020014621B1107820F00400001D107054
:104AF0000846E9E702461378C3F380032BB1137825
:104B000003F001030BB9012300E00023184618B19C
:104B1000137823F004031370704700002DE9F0416F
:104B200005460E4600BFA888C0F30A000446A978CF
:104B300022462DA0FBF754FCE87800F00300012882
:104B400004D0022818D0032848D133E0022E01D126
:104B5000700201E040F2FF30074600BFBC4209DDB1
:104B60009022294929A0FBF73BFC00BF00BF002091
:104B7000BDE8F08100BF33E0022E0DD100BFB4F5D7
:104B8000007F08D09722204920A0FBF729FC00BF16
:104B900000BF0020ECE70CE000BF402C08DD9A22AB
:104BA00019491AA0FBF71CFC00BF00BF0020DFE77B
:104BB00000BF15E0022E01D1700200E04020074640
:104BC00000BFBC4208DDA0220F4910A0FBF708FC83
:104BD00000BF00BF0020CBE700BF01E00020C7E717
:104BE00000BF0120C4E7000020204F70656E204503
:104BF00050202530325820776974682053697A65CF
:104C0000203D2025750D0A005C60000825732025D5
:104C1000643A20415353455254204641494C45443F
:104C20000D0A0000014600204881088101207047DC
:104C300070B50446049DB2F5004F01DD002070BD43
:104C40002160A280E08863F30E00E080E07965F3E4
:104C5000C710E0710020608120810120EFE7F0B5EE
:104C600001468C8808894A89904202DB861AB6B2CE
:104C700003E0171AC7EB4406B6B235468B889D424F
:104C800001DA284600E01846F0BD014608894A8945
:104C9000904201D1012070470020FCE730B5014669
:104CA0008B8808894A89904202DB841AA4B203E007
:104CB000151AC5EB4304A4B28888844201DB0120A5
:104CC00030BD0020FCE770B504460E46638922899A
:104CD00031462046FDF728FA05466189A0882A4614
:104CE000FDF746FB6081284670BD70B504460D4651
:104CF00016460023324629462046FDF79DFA70BD30
:104D000070B504460D461646012332462946204614
:104D1000FDF792FA70BD2DE9F0410246938814899F
:104D200055891E4620462946884204DBA0EB010C2B
:104D30001FFA8CFC05E0A1EB0008C8EB460C1FFA3B
:104D40008CFC6746BB4201DDD81B00E0002080B22E
:104D5000BDE8F0810246D07961F3C710D07101201F
:104D600070472DE9F04104460F46B4F8088020460C
:104D7000FFF794FF20B1E079C00908B900261DE0D3
:104D8000A188404601E0421A90B28842FBDA05460B
:104D900000BFE388C3F30E03216805FB0310E1881D
:104DA000C1F30E023946FBF75AFD00BFA08801226D
:104DB0004146FDF7DDFA2081012600BF3046BDE8FF
:104DC000F08170B504460D4616460023324629464A
:104DD0002046FDF74AFA70BD70B504460D461646EA
:104DE0000123324629462046FDF73FFA70BD0000F8
:104DF0002DE9F74F88B080460E4601200790B8F1A4
:104E0000000F00D02EB939A0FBF7EAFA0BB0BDE8CD
:104E1000F08F444637A103C9CDE905019DF816007E
:104E2000801CC0B28DF8160010200490002536E0DA
:104E30000020039005F00F00B8B925B1A4F11000CF
:104E40001021FEF741FB4FF0000A06E02BA0FBF714
:104E5000C7FA0AF1010000F0FF0A0A988245F5DB63
:104E600025F0704126A0FBF7BBFA0DF10C0B0420D6
:104E70004FF0010ACDE901040198824500D905E00F
:104E8000524658460299FBF7EAFC00BF641C1BA07F
:104E9000FBF7A6FA05A80399FBF7A2FA6D1CB54229
:104EA000C6D306F00F070FB1384600E0102000F01F
:104EB000FF09A7B100250EE010A0FBF791FA4FF013
:104EC000000A04E00DA0FBF78BFA0AF1010ABAF11F
:104ED000020FF7DB6D1CC7F11000A842ECD8A4EB61
:104EE00009004946FEF7F0FA00BF8FE74E554C4CDB
:104EF0000D0A00002530305800000000200000009E
:104F0000253034583A20000010B5044604EB8401E3
:104F100001EB4411034A02EBC10101F11000FFF75C
:104F20009EFE10BDA40100202DE9F04104468846F4
:104F3000154604EB840000EB44100C4901EBC0065D
:104F40004FF6FF70854201D2284601E04FF6FF7010
:104F500082B2414606F11000FFF7C7FE0746304611
:104F6000FDF792F83846BDE8F0810000A40100206A
:104F70002DE9F04104460F46154604EB840000EB92
:104F800044100F4901EBC0064FF6FF70854201D275
:104F9000284601E04FF6FF7082B2394606F11C0048
:104FA000FFF70FFF804606F11C00FFF758FE402870
:104FB00002DB204600F006F84046BDE8F081000024
:104FC000A40100202DE9F041064606EB860000EB27
:104FD0004610244901EBC00400BF00BF00F01EFAD8
:104FE00020B100F029FA08B9012000E0002010B932
:104FF0000020BDE8F08100BF04F11C00FFF72FFE88
:1050000008B90020F5E7002700BFA178002000F0D4
:1050100061FD08B90020ECE700BF402204F1E8017F
:1050200004F11C00FFF761FE0546A5B100BFA178A1
:105030002B4604F1E802002000F04AFE40B9CD22E0
:1050400009490AA0FBF7CCF900BF00BF0020D0E758
:1050500000BF2846CDE7A178002000F0D1FD002058
:10506000C7E70000A40100205E6100082573202529
:10507000643A20415353455254204641494C4544DB
:105080000D0A000070B505460C460748216801600E
:1050900061684160002004498860C8818881214698
:1050A0002846FDF72EF870BDE00400202DE9F04100
:1050B00007460C4615461E46224821680160616875
:1050C0004160856000201F49C8813046E1888842E0
:1050D00001DA024600E00A461A488281E088F0B10F
:1050E0001848808960B100BF4DB97722164917A0D2
:1050F000FBF776F900BF00BF0020BDE8F08100BFDC
:1051000000BF3846FCF7FEFD40B97D220E490FA0D6
:10511000FBF766F900BF00BF0020EEE70FE000BF1D
:1051200021463846FCF7EDFF40B98022064907A02A
:10513000FBF756F900BF00BF0020DEE700BF0120EB
:10514000DBE70000E0040020DD6200082573202575
:10515000643A20415353455254204641494C4544FA
:105160000D0A00000020704701460148704700000A
:105170007E5F0008004870476C5F000800207047A1
:1051800001460020704700002DE9F04105468846A1
:1051900015B1032D0ED106E0194801681948098898
:1051A0004180012421E020211648801CFDF7F4F8FD
:1051B00004461AE0052D02D30020BDE8F081104816
:1051C00050F825603046FBF72BFB04462027202CA7
:1051D00000D92024002005E0325C411C094B23F853
:1051E0001120401CA042F7D300BF00BF6000801C0C
:1051F00080B240F44070034908800846DDE70000B3
:1052000014000020A00000207047000070B5064682
:1052100000F0F8F808B1012070BD002231463BA033
:10522000FBF7DEF82C2145A0FBF7DAF80C214BA0A8
:10523000FBF7D6F80C2150A0FBF7D2F8182155A0A7
:10524000FBF7CEF82C215C48FBF756FB00205B49AE
:1052500008705B4C201DFFF7E5FC00BF5948046057
:1052600000BF006848B94FF4EC72574957A0FBF7EC
:10527000B7F800BF00BF0020CEE700BF594820B1FB
:105280005948AFF300805949086000252FE02846AF
:105290000021554A1278904204DA544A126802EB0F
:1052A00040110BE0504A1278521C904206DA00BFBF
:1052B0004D4A1278821A4E4B03EB421100BF0C4646
:1052C00000BF0CB1606848B94FF4F1723E493FA08D
:1052D000FBF786F800BF00BF00209DE700BF45A098
:1052E0002168FBF77DF860688047681CC5B23E48BE
:1052F0000078401C8542CADB414806703046FDF705
:1053000033FF3046FDF7B6FF012085E75553424491
:1053100020696E6974206F6E20636F6E74726F6C9B
:105320006C65722025752C20486967687370656507
:1053300064203D2025750D0A0000000073697A6520
:105340006F6628757362645F6465766963655F7410
:1053500029203D20256C640D0A00000073697A65E0
:105360006F66286463645F6576656E745F74292078
:105370003D20256C640D0A0073697A656F66287498
:10538000755F6669666F5F7429203D20256C640D2A
:105390000A00000073697A656F662874755F65643A
:1053A00070745F73747265616D5F7429203D202590
:1053B0006C640D0A00000000F40300203800002097
:1053C0004400002054000020DC61000825732025E3
:1053D000643A20415353455254204641494C454478
:1053E0000D0A000000000000400000203C000020EA
:1053F0008C610008257320696E69740D0A00000035
:105400004100002003480078FF2801D001207047A8
:105410000020FCE74100002070470000034840786E
:1054200008B1012070470020FCE70000F4030020D1
:10543000704770477047000002480078C0F3800052
:1054400070470000F40300202DE9FE4380468946A2
:10545000FFF7D8FF08B9BDE8FE8366E1B3486D46A3
:10546000046800BF00202168884700BF2946201D2E
:10547000FFF729FC064600BF01202168884700BFCE
:1054800000BF06B9E7E79DF80100062802D1A8A0F1
:10549000FAF7A6FF9DF80100092805DA9DF801003A
:1054A000A44A52F8200000E0A3A00146A5A0FAF704
:1054B00097FF9DF8010009287ED2DFE800F07D0506
:1054C00016EFF0ED2084EC009DF80400A04A52F89D
:1054D0002010A0A0FAF784FF9DF8000000F0E2FC85
:1054E0009DF804009F4988701DE191A0FAF778FFAC
:1054F0009DF8000000F0D6FC00F09EF913E100BF1B
:1055000099480078002808DC40F25622974998A074
:10551000FAF766FF00BF00BF9DE700BF9248007822
:10552000401E9149087001AD0826002404E0295D61
:1055300095A0FAF755FF641CB442F8D394A0FAF78B
:105540004FFF00BF8848007818B192A0FAF748FFD3
:10555000E9E08448007820F00100401C814908708F
:10556000084690F8200020F0010081F8200008464D
:1055700090F8200020F0040081F82000084690F800
:10558000210020F00101774880F8211090F82100D7
:1055900020F00401734880F821109DF8000001A953
:1055A000FEF794FD70B987A0FAF71AFF9DF8000086
:1055B0000021FDF719FC00E0B2E09DF80000802119
:1055C000FDF712FCAFE09DF80450284620F0800162
:1055D0000C4600BFC1090E4629467EA0029AFAF782
:1055E000FFFE6048203000EB4400805D20F00101A8
:1055F0005C48203000EB440081555A48203000EBD5
:105600004400805D20F004015648203000EB440047
:10561000815544B99DF805209DF800002946029B5C
:1056200000F07AF936E04F49143101EB4401885D0E
:1056300000216F4A1278904204DA6E4A126802EB37
:1056400040110BE06A4A1278521C904206DA00BF01
:10565000674A1278821A684B03EB421100BF0F466B
:1056600000BF47B940F28122404941A0FAF7B8FE95
:1056700000BF00BFEFE600BF60A03968FAF7B0FED8
:105680009DF805209DF80000029B2946D7F818C018
:10569000E04700BF47E028E018E000E02EE0314896
:1056A000007800F0010068B12E480078C0F3C00116
:1056B00058A0FAF795FE2B490978C1F3C000FFF70F
:1056C000B9FE02E059A0FAF78BFE2CE025480078DD
:1056D00000F0010028B116A0FAF782FEFFF7A8FE3D
:1056E00002E052A0FAF77CFE1DE011A0FAF778FE66
:1056F000019810B1DDE90110884714E0194AD0780B
:10570000002101228A4002400AB1012200E0002269
:105710002AB107A0FAF764FE0198FFF78AFE02E0BB
:1057200000BF00BF00BF00BF00BF97E654000020CD
:105730000D0A0000AC610008434F525255505445C9
:10574000440000005553424420257320000000000F
:105750000C6000083A2025732053706565640D0ABB
:1057600000000000F403002038000020F961000868
:1057700025732025643A2041535345525420464115
:10578000494C45440D0A00002530325820000000E5
:105790000D0A00002020536B6970706564207369E6
:1057A0006E6365207468657265206973206F746824
:1057B000657220534554555020696E20717565758A
:1057C000650D0A0020205374616C6C204550300D2B
:1057D0000A0000006F6E2045502025303258207797
:1057E0006974682025752062797465730D0A00005C
:1057F000400000203C0000208C6100082020257320
:1058000020786665722063616C6C6261636B0D0A5F
:10581000000000003A2052656D6F74652057616B7F
:10582000657570203D2025750D0A000020536B69B9
:10583000707065640D0A00007047034600207047D1
:1058400000B587B0142102A8FBF778F800BF00204C
:1058500001902148006840F001001F490860084697
:10586000006800F00100019000BF00BF4FF4C0507D
:1058700002900220039000200490032005900A204B
:10588000069002A91548FBF707FA00BF1248001D51
:10589000006840F080001049091D086000BF00202A
:1058A00001900D481430006840F480400A491431DA
:1058B00008600846006800F48040019000BF00BF07
:1058C00000BF002211464320FBF782FB4320FBF779
:1058D0006BFB07B000BD0000303802400000024002
:1058E00010B514210148FBF729F810BDE004002091
:1058F0000149086170470000E00400200549026882
:105900000A6042684A600021024A9160D181918117
:1059100070470000E00400202DE9F04106460D46E6
:1059200090461C4600BFC5F3C01040490978B0EB53
:10593000D11F1BD000BF4CB1A7223D493DA0FAF7B3
:105940004FFD00BF00BF0020BDE8F08100BF374918
:105950003046FDF767F93548006928B133480246FB
:1059600003210369304698470120EDE72F4800786E
:10597000C00988B900BF2D48806808B90020E3E756
:1059800000BF2A49224688683049FAF768FF022298
:1059900021462E48FFF72CFA2448C0892044234989
:1059A000C88108468068204488600846C088C98944
:1059B000884201D0402C28D201271C48006950B1F0
:1059C0001A49086900F044F81848024602210369A0
:1059D0003046984707467FB100BF14493046FCF770
:1059E00090FB40B9D022124912A0FAF7F9FC00BF8F
:1059F00000BF0020A8E707E000213046FDF7F4F9DA
:105A000080213046FDF7F0F90EE000BF3046FCF78C
:105A100079F940B9D822064906A0FAF7E1FC00BF9F
:105A200000BF002090E700BF01208DE7E0040020C8
:105A3000EE62000825732025643A204153534552F5
:105A400054204641494C45440D0A0000F40400200E
:105A500070B50646002423E020460021144A12783F
:105A6000904204DA134A126802EB40110BE0104A2C
:105A70001278521C904206DA00BF0D4A1278821A40
:105A80000D4B03EB421100BF0D463DB16869B042BA
:105A900004D10AA02968FAF7A3FC70BD601CC4B247
:105AA00003480078401C8442D6DB00BFF5E70000C5
:105AB000400000203C0000208C610008257320631A
:105AC0006F6E74726F6C20636F6D706C6574650DB2
:105AD0000A0000002DE9F04180460C4600BF24F08A
